:0600000000F097EF07F08D
:100ECC00808600F081A8FED7809612000690818063
:100EDC0000F0819081B80680120006AE02D08182AB
:100EEC0001D08192818000F081901200800E096EF9
:100EFC00036A046A8086DBEC07F080961200980E79
:100F0C00096E036A046A8086DBEC07F08096120097
:100F1C007F0EC16E806AF70E926E816AFC0E936E24
:100F2C00FC0C066A056A046A036A026A016A00011B
:100F3C00CCEF07F0C00E096E8086DBEC07F0B4EC4A
:100F4C0007F08096065012000A6A73EC07F0D890EE
:100F5C0006360A2A070E0A64F8D7070C066A0A6ACC
:100F6C00D89006366CEC07F00A2A070E0A64F8D7FC
:100F7C00070C0C6EA00E096E8086DBEC07F00CC023
:100F8C0006F0AAEC07F0809666EF07F08EEC07F0FF
:100F9C0085EC07F0046A100E036E550EBFEC07F0DB
:100FAC00A0EC07F07CEC07F0FFD703C007F004C0FF
:100FBC0008F0056AD89007360836052A030E056432
:100FCC00F9D71F0E081609C001F0026A01500B6E0A
:100FDC000A6A0A5007120B500812056A08C006F07C
:100FEC0073EC07F0D89007360836052A0B0E05640B
:040FFC00F5D70B0C0E
:020000040020DA
:08000000FFFFFFFFFFFFFFFF00
:020000040030CA
:0E000000FF020D1EFF8081FF03C003E00340DE
:00000001FF
